:100000000C9439000C9456000C9456000C94560035
:100010000C9456000C9456000C9456000C94560008
:100020000C9456000C9456000C9456000C949705B2
:100030000C9456000C9456000C9456000C945600E8
:100040000C9456000C9456000C9456000C945600D8
:100050000C94560005A84CCDB2D44EB93836A9023E
:100060000C50B9918688083CA6AAAA2ABE000000B6
:10007000803F11241FBECFE5D4E0DEBFCDBF12E02C
:10008000A0E6B0E0EAE6FBE102C005900D92A032E6
:10009000B107D9F712E0A0E2B2E001C01D92A93C7D
:1000A000B107E1F70E94CE050C94B30D0C9400004B
:1000B00098B3282F207F9F70922B98BBC098C19A2D
:1000C00095E09A95F1F70000C198EFE1F3E03197E0
:1000D000F1F700C0000098B38295807F9F70892B54
:1000E00088BBC19AF5E0FA95F1F70000C1988FE35B
:1000F0009FE10197F1F700C00000089598B3282F01
:10010000207F9F70922B98BBC09AC19A95E09A95D8
:10011000F1F70000C198EFE1F3E03197F1F700C08B
:10012000000098B38295807F9F70892B88BBC19A0D
:10013000F5E0FA95F1F70000C1988FE39FE1019790
:10014000F1F700C0000008958FEF87BB8FEF99EFA4
:10015000A0E081509040A040E1F700C0000082E0A4
:100160000E94580088E20E9458008CE00E945800CB
:1001700086E00E94580081E00E945800AFE3BFE192
:100180001197F1F700C000000895CF93DF93EC01C1
:100190008881882331F021960E947E0089918823EE
:1001A000D9F7DF91CF910895CF93DF93EA018823A8
:1001B00041F4603178F4862F8F7080680E94580077
:1001C00009C0813039F4603128F4862F8F70806C3B
:1001D0000E945800CE010E94C500DF91CF91089582
:1001E00081E00E9458008FE39FE10197F1F700C082
:1001F000000080E80E94580008952F923F924F928D
:100200005F926F927F928F929F92AF92BF92CF92A6
:10021000DF92EF92FF920F931F93CF93DF93CDB7AF
:10022000DEB760970FB6F894DEBF0FBECDBF8F83E9
:1002300098872DB73EB73C872B87E82FF92FDF0132
:100240000D900020E9F7CD0101978E1B082F10E0DB
:10025000EDB7FEB7E01BF10B0FB6F894FEBF0FBE73
:10026000EDBF2DB63EB60894211C311C40912002F2
:10027000509121026091220270912302403FF8EDDB
:100280005F07FFEF6F07FFEF7F0761F41092200217
:1002900010922102109222021092230282E0809397
:1002A000C802AAC044245524320190E0019791016C
:1002B000280F391F3A83298389879A87C1010196BC
:1002C0009C838B831E830D838091C802843011F43C
:1002D0001092C802E8E2F2E001900020E9F73197BD
:1002E000E852F240CF01A0E0B0E00097A105B105CF
:1002F00009F464C0EFE9FFE03197F1F700C00000B6
:100300000894411C511C611C711CE8E2F2E0019050
:100310000020E9F73197E852F2404F01AA24BB24AC
:1003200088169906AA06BB0609F048C081149104F4
:10033000A104B10409F442C008E212E0CC24DD2497
:1003400076014D865E866F86788A5F8068847984C0
:100350004A84822D932D6B817C81472D542D0E94E0
:100360005B0AD8018D918D01E981FA818083822D0C
:10037000932D652D762D4D815E810E94740A282F64
:10038000392F2115310561F41092200210922102BB
:10039000109222021092230281E08093C8022CC0A6
:1003A0000894C11CD11CE11CF11C8C149D04AE04EA
:1003B000BF0479F64D845E846F8478888FE99FE06E
:1003C0000197F1F700C000000894411C511C611C0A
:1003D000711C8091200290912102A0912202B09183
:1003E0002302805F984DAF4FBF4F481659066A06EB
:1003F0007B0608F469CF4ACFAB85BC850FB6F8946D
:10040000BEBF0FBEADBF60960FB6F894DEBF0FBE85
:10041000CDBFDF91CF911F910F91FF90EF90DF90B3
:10042000CF90BF90AF909F908F907F906F905F9094
:100430004F903F902F90089580EAE8E2F2E0DF01CC
:100440001D928A95E9F710922702109226021092C7
:100450002502109224020895CF93DF93EC0184E0EB
:100460008093C802CE010E94FD008091C8028823BB
:10047000C9F3DF91CF910895CF92DF92EF92FF926F
:100480000F931F93CF93DF9300D000D00F92CDB77F
:10049000DEB77C01BC01645F7F4FFC0184858D3039
:1004A00049F03D960CE010E00F5F1F4F81918D30B9
:1004B000D9F702C00CE010E0A8014C505040CE012A
:1004C00001960E94820AB8016E5F7F4FAE2DBF2D4C
:1004D000FD0101900020E9F73197EA1BFB0B6F014A
:1004E000C61AD70A6E0D7F1D8E2D9F2D4C2D5D2DAA
:1004F0000E94520AF6013697EE0EFF1EC70160E613
:1005000070E046E050E00E94740A282F392F211530
:10051000310549F4A801485F5F4F8E2D9F2D60E0A3
:1005200070E00E946D0A0F900F900F900F900F9047
:10053000DF91CF911F910F91FF90EF90DF90CF90BF
:1005400008950E942C0281E09091C802923009F433
:1005500080E008950F931F93CF93DF93EC018B01FD
:100560000E941C02CE010E94480787E690E00E948C
:100570004807C8010E94A102DF91CF911F910F91FE
:1005800008950F931F93CF93DF93CDB7DEB7649792
:100590000FB6F894DEBF0FBECDBF8E010F5F1F4FA9
:1005A00094E1D8011D929A95E9F700D000D000D0CF
:1005B000EDB7FEB73196ADB7BEB712961C930E934A
:1005C00011972AE630E033832283848315820E94C8
:1005D000CC0A1C8AEDB7FEB736960FB6F894FEBF6C
:1005E0000FBEEDBFC80160E670E00E94AA026496EB
:1005F0000FB6F894DEBF0FBECDBFDF91CF911F9134
:100600000F9108950F931F93CF93DF93CDB7DEB76C
:1006100064970FB6F894DEBF0FBECDBF8E010F5F9B
:100620001F4F94E1D8011D929A95E9F700D000D0B0
:1006300000D0EDB7FEB73196ADB7BEB712961C939A
:100640000E93119728E730E0338322838483158249
:100650000E94CC0A1C8AEDB7FEB736960FB6F89406
:10066000FEBF0FBEEDBFC80160E670E00E94AA02A7
:1006700064960FB6F894DEBF0FBECDBFDF91CF9169
:100680001F910F910895CF92DF92EF92FF920F93F7
:100690001F93CF93C5E00F2EF5E8EF2EF0E0FF2E6D
:1006A000F02D00E610E00F2EFAE8CF2EF0E0DF2E5E
:1006B000F02DC701B8010E94AA02882349F4C6019F
:1006C000B8010E94AA02882329F4C15091F703C0FF
:1006D00081E001C081E0CF911F910F91FF90EF90D9
:1006E000DF90CF9008958DE890E060E670E00E9482
:1006F000AA0208950F931F93CF93DF93CDB7DEB770
:1007000064970FB6F894DEBF0FBECDBF8E010F5FAA
:100710001F4F94E1D8011D929A95E9F700D000D0BF
:1007200000D0EDB7FEB73196ADB7BEB712961C93A9
:100730000E9311972BE930E0338322838483158253
:100740000E94CC0A1C8AEDB7FEB736960FB6F89415
:10075000FEBF0FBEEDBFC80160E670E00E94AA02B6
:1007600064960FB6F894DEBF0FBECDBFDF91CF9178
:100770001F910F9108950F931F93CF93DF93CDB7E0
:10078000DEB7EC970FB6F894DEBF0FBECDBF8E017B
:100790000F5F1F4F2CE3D8011D922A95E9F7EDB7A3
:1007A000FEB738970FB6F894FEBF0FBEEDBF319677
:1007B000ADB7BEB712961C930E93119728EA30E09E
:1007C0003383228395838483778366830E94CC0A54
:1007D0001CAEEDB7FEB738960FB6F894FEBF0FBE4D
:1007E000EDBFC8016BEB70E00E94AA02882311F5EF
:1007F00088E292E06EEC70E00E94910A0097E1F4CA
:1008000088E292E067ED70E00E94910A0097B1F4EF
:1008100088E292E060EE70E00E94910A009781F415
:1008200088E292E069EE70E00E94910A009751F030
:1008300084E009C080E007C081E005C082E003C019
:1008400083E001C085E0EC960FB6F894DEBF0FBEE2
:10085000CDBFDF91CF911F910F91089582EF90E06E
:1008600060E670E00E94AA0288E292E06FEF70E01A
:100870000E94910A0097D1F488E292E068E071E06A
:100880000E94910A0097A1F488E292E061E171E090
:100890000E94910A009771F488E292E06AE171E0A7
:1008A0000E94910A009741F083E0089580E0089546
:1008B00081E0089582E0089584E00895CF92DF9268
:1008C000EF92FF921F93CF93DF93CDB7DEB7EC97F4
:1008D0000FB6F894DEBF0FBECDBF182F7B016A01A3
:1008E000FE0131968CE3DF011D928A95E9F783E2E0
:1008F00091E06EE271E00E94AA02882331F18DB787
:100900009EB708970FB6F8949EBF0FBE8DBFEDB788
:10091000FEB73196CE010196ADB7BEB712969C9345
:100920008E93119787E391E093838283F582E4822B
:10093000D782C6820E94CC0A8DB79EB708960FB6A2
:10094000F8949EBF0FBE8DBF25C0ADB7BEB71A9736
:100950000FB6F894BEBF0FBEADBFEDB7FEB7319670
:10096000CE01019612969C938E93119781E591E0AA
:100970009383828314831582F782E682D186C086B0
:100980000E94CC0A8DB79EB70A960FB6F8949EBF08
:100990000FBE8DBFCE01019660E771E00E94AA02F2
:1009A000882329F48091C802823019F403C081E0C1
:1009B00001C085E0EC960FB6F894DEBF0FBECDBF48
:1009C000DF91CF911F91FF90EF90DF90CF9008952E
:1009D000EF92FF920F931F93CF93DF93CDB7DEB7C4
:1009E00064970FB6F894DEBF0FBECDBF182F092F46
:1009F0007E010894E11CF11C84E1D7011D928A95C7
:100A0000E9F7E12FF92FDF010D900020E9F7CD0183
:100A10008E1B9F0B00D000D000D0EDB7FEB73196F3
:100A2000ADB7BEB71296FC92EE9211972AE731E06D
:100A3000338322830196958384830E94CC0A1C8A87
:100A4000EDB7FEB736960FB6F894FEBF0FBEEDBFFA
:100A5000C70168E871E00E94AA02812F902F60E927
:100A600071E00E94AA02882329F48091C802823092
:100A700019F403C081E001C085E064960FB6F894D4
:100A8000DEBF0FBECDBFDF91CF911F910F91FF90C1
:100A9000EF900895809126029091270220912402E0
:100AA00030912502821B930B0895209124023091EE
:100AB00025028091260290912702281739077CF49D
:100AC0002091240230912502F901E85DFD4F8081DB
:100AD0002F5F3F4F309325022093240208950E94F8
:100AE0001C0280E008950F931F93CF93DF932FEFA5
:100AF00031EE44E0215030404040E1F700C00000BA
:100B0000082F192FC0E0D0E006C00E945505F8015B
:100B100081938F0121960E944A0518161906ACF39D
:100B20008C2F9D2FDF91CF911F910F9108951F92D0
:100B30000F920FB60F9211242F938F939F93EF93E1
:100B4000FF932FB7F894E0912602F09127028CB121
:100B5000E85DFD4F808380912602909127020196E7
:100B6000909327028093260280912602909127027B
:100B7000803A910541F410922702109226021092B9
:100B80002502109224022FBFFF91EF919F918F9128
:100B90002F910F900FBE0F901F901895CF93DF935A
:100BA000CDB7DEB7C05AD0400FB6F894DEBF0FBE47
:100BB000CDBF81B38C6081BB8A988B9884B38760EA
:100BC00084BB0E94A4000E94F0008CE991E00E9486
:100BD000C50060E072EC81E090E00E941907789413
:100BE0000E9443038823E1F383E00E947A0380E0BC
:100BF0000E94020380E00E94C1020E942E04833002
:100C000031F480EB91E06FEB71E00E94BB0380E078
:100C100069EC71E04CED51E00E945E0400E010E0F0
:100C2000662477242E010894411C511C222433246D
:100C300080C0829BFECF1DBC1CBC21E02EBD839BCF
:100C4000FECF1EBC6CB57DB580E090E00E946B08C5
:100C5000462F572F682F792FCB01BA0120E030E0C3
:100C600040E85FE30E945807462F572F682F792FDF
:100C7000CB01BA0120E034E244E759E40E94D207F4
:100C800020E030E048E452E40E94720920E030E0C5
:100C900044EB53E40E947209462F572F682F792F97
:100CA000CB01BA0127EA37EE4EE85CE30E947209F5
:100CB000462F572F682F792FCB01BA010E94CF07FB
:100CC00020E030E048EC52E40E9472090E94BC0728
:100CD0006B017C01B801882777FD8095982F0E94D1
:100CE0006D084B015C01C701B6010E943A08862FCE
:100CF000972F99231CF4909581959F4FDC01BD019E
:100D0000882777FD8095982F0E946D089B01AC0184
:100D1000C501B4010E945807462F572F682F792F1D
:100D2000CB01BA010E943A088B019C010894611C16
:100D3000711CB2E36B1671040CF47BCFC80162E343
:100D400070E00E942B0A7B018B01CB01BE0169562A
:100D50007F4F4AE050E00E94AB0A0E94F0008FED06
:100D600091E00E94C500CE0189569F4F0E94C500A8
:100D7000C701815590408A30910520F485B38C7F5E
:100D800085BB0AC00135110524F485B3887F85BB76
:100D900003C085B3876085BB0E942E04833039F47D
:100DA00080EB91E06FEB71E00E94BB0309C08230E1
:100DB00039F480E069EC71E04CED51E00E945E0492
:100DC000F20126E911922A95E9F78DB79EB70897A7
:100DD0000FB6F8949EBF0FBE8DBFEDB7FEB731962C
:100DE000ADB7BEB712965C924E9211972EEE31E0DF
:100DF000338322838FE092E095838483F782E682B7
:100E00000E94CC0AADB7BEB718960FB6F894BEBF15
:100E10000FBEADBFC2010E94E8048FEF93EDA0E3C7
:100E200081509040A040E1F700C0000081013101F5
:100E300080CF599A2AB128692AB920B5266820BDE1
:100E40000E946B0820E030E040E051E40E9472090B
:100E50009B01AC0160E074E284E79BE40E94D2074E
:100E600020E030E040E85FE30E9457070E94D50988
:100E70000E943A0869B9672F770F770B60BD089514
:100E80005F9BFECF8CB108958CB95D9BFECF08951A
:100E9000CF93DF93EC018881882331F021960E9463
:100EA000440789918823D9F7DF91CF91089550584D
:100EB000BB27AA270ED0B4C17DD130F082D120F05B
:100EC00031F49F3F11F41EF472C10EF4E095E7FB7C
:100ED0003FC1E92FC7D180F3BA17620773078407B0
:100EE000950718F071F49EF5F6C10EF4E0950B2EFF
:100EF000BA2FA02D0B01B90190010C01CA01A0016C
:100F00001124FF27591B99F0593F50F4503E68F1C6
:100F10001A16F040A22F232F342F4427585FF3CF07
:100F2000469537952795A795F0405395C9F77EF4D8
:100F30001F16BA0B620B730B840BBAF09150A1F021
:100F4000FF0FBB1F661F771F881FC2F70EC0BA0FA7
:100F5000621F731F841F48F4879577956795B7952F
:100F6000F7959E3F08F0B3CF9395880F08F0992727
:100F7000EE0F97958795089597D180F09F3740F4AD
:100F800091110EF4A9C160E070E080E89FE308953C
:100F900026F01B16611D711D811DE0C0FAC019D11C
:100FA000E3954FC10CD03CC10CD140F003D130F0DF
:100FB00021F45F3F19F0CCC051118EC1F8C052D15D
:100FC00098F39923C9F35523B1F3951B550BBB2710
:100FD000AA2762177307840738F09F5F5F4F220FBD
:100FE000331F441FAA1FA9F333D00E2E3AF0E0E8B6
:100FF00030D091505040E695001CCAF729D0FE2F02
:1010000027D0660F771F881FBB1F26173707480793
:10101000AB07B0E809F0BB0B802DBF01FF27935849
:101020005F4F2AF09E3F510568F092C055C15F3F67
:10103000ECF3983EDCF3869577956795B795F79531
:101040009F5FC9F7880F911D9695879597F9089529
:10105000E1E0660F771F881FBB1F621773078407C5
:10106000BA0720F0621B730B840BBA0BEE1F88F7D4
:10107000E095089504D06894B1112EC10895FAD076
:1010800088F09F5790F0B92F9927B751A0F0D1F071
:10109000660F771F881F991F1AF0BA95C9F712C0FB
:1010A000B13081F018D1B1E0089515C1672F782FC4
:1010B0008827B85F39F0B93FCCF386957795679567
:1010C000B395D9F73EF490958095709561957F4FD3
:1010D0008F4F9F4F0895E89409C097FB3EF4909579
:1010E0008095709561957F4F8F4F9F4F9923A9F001
:1010F000F92F96E9BB279395F69587957795679590
:10110000B795F111F8CFFAF4BB0F11F460FF1BC0D3
:101110006F5F7F4F8F4F9F4F16C0882311F096E966
:1011200011C0772321F09EE8872F762F05C0662314
:1011300071F096E8862F70E060E02AF09A95660FCD
:10114000771F881FDAF7880F9695879597F9089586
:1011500097F99F6780E870E060E00895882371F454
:10116000772321F09850872B762F07C0662311F440
:1011700099270DC09051862B70E060E02AF09A9577
:10118000660F771F881FDAF7880F9695879597F96E
:1011900008959F3F31F0915020F48795779567959A
:1011A000B795880F911D9695879597F908959FEFAC
:1011B00080EC089500240A941616170618060906EE
:1011C000089500240A9412161306140605060895BD
:1011D000EECF50D0E8F3E894E0E0BB279F57F0F063
:1011E0002AED3FE049EC06C0EE0FBB0F661F771FEC
:1011F000881F28F0B23A62077307840728F0B25AB2
:10120000620B730B840BE3959A9572F7803830F478
:101210009A95BB0F661F771F881FD2F79048BBCFE8
:10122000092E0394000C11F4882352F0BB0F40F4F4
:10123000BF2B11F460FF04C06F5F7F4F8F4F9F4F34
:101240000895EF93E0FF06C0A2EA2AED3FE049ECE3
:101250005FEB3FDEE5DF0F90039401FC9058E4E57F
:10126000F0E0C3C057FD9058440F551F59F05F3F41
:1012700071F04795880F97FB991F61F09F3F79F0B8
:1012800087950895121613061406551FF2CF46953A
:10129000F1DF08C0161617061806991FF1CF8695BC
:1012A0007105610508940895E5DFA0F0BEE7B91760
:1012B00088F4BB279F3860F41616B11D672F782F6E
:1012C0008827985FF7CF869577956795B11D939599
:1012D0009639C8F30895E894BB2766277727CB0192
:1012E00097F908950BD09CCF65DF28F06ADF18F0DE
:1012F000952309F02DCF5BCF1124EECFB3DFA0F300
:10130000959FD1F3950F50E0551F629FF001729F9A
:10131000BB27F00DB11D639FAA27F00DB11DAA1FB9
:10132000649F6627B00DA11D661F829F2227B00D06
:10133000A11D621F739FB00DA11D621F839FA00D91
:10134000611D221F749F3327A00D611D231F849FE1
:10135000600D211D822F762F6A2F11249F57504038
:101360008AF0E1F088234AF0EE0FFF1FBB1F661FD3
:10137000771F881F91505040A9F79E3F510570F08C
:10138000E7CEAACF5F3FECF3983EDCF386957795E6
:101390006795B795F795E7959F5FC1F7FE2B880F87
:1013A000911D9695879597F9089564DFE0F09E3733
:1013B000D8F09639B8F49E3848F4672F782F8827EC
:1013C000985FF9CF86957795679593959539D0F382
:1013D000B62FB1706B0F711D811D20F48795779525
:1013E00067959395BBCED5CE77CF9F938F937F9301
:1013F0006F93FF93EF939B01AC0174DFEF91FF912B
:1014000005D02F913F914F915F916CCFDF93CF9398
:101410001F930F93FF92EF92DF927B018C016894F0
:1014200005C0DA2EEF016ADFFE01E894A59125914F
:10143000359145915591AEF3EF014BDDFE019701DA
:10144000A801DA9479F7DF90EF90FF900F911F9148
:10145000CF91DF91089597FB092E07260AD077FDDB
:1014600004D00CD006D000201AF4709561957F4FFF
:101470000895F6F7909581959F4F0895AA1BBB1B81
:1014800051E107C0AA1FBB1FA617B70710F0A61B84
:10149000B70B881F991F5A95A9F780959095BC01A5
:1014A000CD010895FB01DC0102C001900D92415075
:1014B0005040D8F708956817790768F4FB01DC01FC
:1014C000E40FF51FA40FB51F02C002900E92415009
:1014D0005040D8F708950C94520ADC0101C06D9376
:1014E00041505040E0F70895FB01DC01415050406D
:1014F00030F08D910190801919F40020B9F7881B04
:10150000990B0895FB01DC014150504048F00190D7
:101510000D920020C9F701C01D9241505040E0F7E4
:101520000895FB0151915523A9F0BF01DC014D91B4
:1015300045174111E1F759F4CD010190002049F020
:101540004D9140154111C9F3FB014111EFCF81E0ED
:1015500090E001970895FB019F01E8944230C4F0A8
:101560004532B4F44A3029F497FB1EF490958195E6
:101570009F4F642F77270E943E0A805D8A330CF0CC
:10158000895D8193CB010097A1F716F45DE2519339
:101590001082C9010C94E20CAEE0B0E0E2EDFAE09A
:1015A0000C948A0D0D891E8986E08C831A83098329
:1015B0008FEF9FE79E838D83AE01475E5F4FCE0125
:1015C00001966F89788D0E94EE0AEF81F885E00F11
:1015D000F11F10822E96E4E00C94A60DADE0B0E071
:1015E000E4EFFAE00C947C0D3C017D876C875A0196
:1015F000FC0117821682838181FFC8C12E010894E5
:10160000411C511CF3019381EC85FD8593FD85916F
:1016100093FF8191FD87EC87882309F4B3C185325C
:1016200041F493FD859193FF8191FD87EC8785328D
:1016300029F490E0B3010E94F20CE4CFFF24EE24E1
:1016400010E01032B0F48B3269F08C3228F4803222
:1016500051F0833271F40BC08D3239F0803349F48C
:1016600011602CC01260146029C0186027C010617E
:1016700025C017FD2EC0282F20532A3098F416FFBE
:1016800008C08F2D880FF82EFF0CFF0CF80EF20EFD
:1016900015C08E2D880FE82EEE0CEE0CE80EE20E33
:1016A00010620CC08E3221F416FD6CC1106406C0AD
:1016B0008C3611F4106802C0883659F4EC85FD852B
:1016C00093FD859193FF8191FD87EC87882309F035
:1016D000B8CF982F9554933018F09052933038F437
:1016E00024E030E0A20EB31E3FE339830FC08336FF
:1016F00031F0833781F0833509F05AC022C0F501FB
:101700008081898322E030E0A20EB31E21E0C22E48
:10171000D12C420114C092E0292E312C2A0C3B1C02
:10172000F5018080918016FF03C06F2D70E002C02C
:101730006FEF7FEFC4010E94D70C6C0151011F773E
:1017400015C082E0282E312C2A0C3B1CF50180802C
:10175000918016FF03C06F2D70E002C06FEF7FEF26
:10176000C4010E94CC0C6C011068510113FD1CC017
:1017700006C080E290E0B3010E94F20CEA948E2D44
:1017800090E0C816D906A8F30FC0F40117FD8591A3
:1017900017FF81914F0190E0B3010E94F20CE1101C
:1017A000EA940894C108D108C114D10471F7E7C0C4
:1017B000843611F0893651F5F50117FF07C0808195
:1017C0009181A281B38124E030E008C080819181C1
:1017D000AA2797FDA095BA2F22E030E0A20EB31EF3
:1017E000012F0F76B7FF08C0B095A0959095819511
:1017F0009F4FAF4FBF4F0068BC01CD01A2012AE04F
:1018000030E00E941E0DD82ED4183FC0853721F439
:101810001F7E2AE030E020C0197F8F36A9F0803784
:1018200020F4883509F0AEC00BC0803721F088372E
:1018300009F0A8C001C0106114FF09C0146007C0FE
:1018400014FF08C0166006C028E030E005C020E1A3
:1018500030E002C020E132E0F50117FF07C06081EF
:1018600071818281938144E050E006C06081718182
:1018700080E090E042E050E0A40EB51EA2010E947C
:101880001E0DD82ED418012F0F7706FF09C00E7F2A
:10189000DF1430F404FF06C002FD04C00F7E02C056
:1018A0001D2D01C01F2D802F90E004FF0CC0FE01F4
:1018B000ED0DF11D2081203311F4097E09C002FFD6
:1018C00006C01E5F05C086789070009709F01F5F04
:1018D000802E992403FD12C000FF0DC0FD2C1E15A3
:1018E00050F4FE0CF11A1E2D06C080E290E0B30108
:1018F0000E94F20C1F5F1E15C0F304C01E1510F4E9
:10190000E11A01C0EE2484FE0FC080E390E0B30131
:101910000E94F20C82FE1FC081FE03C088E590E0A9
:1019200010C088E790E00DC0C401867890700097E1
:1019300091F081FC02C080E201C08BE207FD8DE2E4
:1019400090E0B3010E94F20C06C080E390E0B30186
:101950000E94F20CFA94DF14C0F3DA94F201ED0D58
:10196000F11D808190E0B3010E94F20CDD20A9F707
:1019700006C080E290E0B3010E94F20CEA94EE20EF
:10198000C1F740CEF3018681978102C08FEF9FEFB0
:101990002D96E2E10C94980DFC0105906150704089
:1019A0000110D8F7809590958E0F9F1F0895FC0128
:1019B0006150704001900110D8F7809590958E0F7E
:1019C0009F1F0895DC01FC01672F71917723E1F7D8
:1019D000329704C07C916D9370836291AE17BF07FC
:1019E000C8F308950F931F93CF93DF938C01EB01FE
:1019F0008B8181FF1BC082FF0DC02E813F818C81B6
:101A00009D812817390764F4E881F9810193F983EE
:101A1000E88306C0E885F985802F0995009731F4A1
:101A20008E819F8101969F838E8302C00FEF1FEFEF
:101A3000C801DF91CF911F910F910895FA01AA2754
:101A4000283051F1203181F1E8946F936E7F6E5F01
:101A50007F4F8F4F9F4FAF4FB1E03ED0B4E03CD0AF
:101A6000670F781F891F9A1FA11D680F791F8A1F92
:101A7000911DA11D6A0F711D811D911DA11D20D0F9
:101A800009F468943F912AE0269F11243019305DB3
:101A90003193DEF6CF010895462F4770405D4193A4
:101AA000B3E00FD0C9F7F6CF462F4F70405D4A33F1
:101AB00018F0495D31FD4052419302D0A9F7EACFB9
:101AC000B4E0A6959795879577956795BA95C9F7E8
:101AD00000976105710508959B01AC010A2E0694DB
:101AE0005795479537952795BA95C9F7620F731F94
:101AF000841F951FA01D08952F923F924F925F92D1
:101B00006F927F928F929F92AF92BF92CF92DF920D
:101B1000EF92FF920F931F93CF93DF93CDB7DEB772
:101B2000CA1BDB0B0FB6F894DEBF0FBECDBF099406
:101B30002A88398848885F846E847D848C849B845D
:101B4000AA84B984C884DF80EE80FD800C811B816B
:101B5000AA81B981CE0FD11D0FB6F894DEBF0FBE9A
:0A1B6000CDBFED010895F894FFCF0A
:101B6A000D0A4F4B0D0A000D0A0041542B434950F0
:101B7A004D4F44453D25640041542B4349504D5532
:101B8A00583D256400415445300041540041542BCE
:101B9A00434950434C4F53453D310041542B435721
:101BAA004D4F44453D25640041542B43574A41500B
:101BBA003D222573222C22257322000D0A574946FD
:101BCA004920434F4E4E45435445440D0A002B438A
:101BDA00574A41503A31002B43574A41503A320052
:101BEA002B43574A41503A33002B43574A41503A04
:101BFA00340041542B4349505354415455530053D4
:101C0A0054415455533A32005354415455533A337C
:101C1A00005354415455533A340053544154555384
:101C2A003A350041542B4349504D55583F004349DA
:101C3A00504D55583A300041542B43495053544162
:101C4A0052543D22544350222C222573222C2573B0
:101C5A000041542B43495053544152543D22256468
:101C6A00222C22544350222C222573222C25730025
:101C7A00434F4E4E4543540D0A0041542B4349509D
:101C8A0053454E443D2564000D0A4F4B0D0A3E0054
:101C9A000D0A53454E44204F4B0D0A0052616469A8
:101CAA00616E63652049495420426F6D6261790013
:101CBA004A617276697320656E676167656400615F
:101CCA006E75726167403138006170692E74686997
:101CDA006E67737065616B2E636F6D0038300050EC
:101CEA006F77657220466163746F723A20004745C8
:101CFA0054202F7570646174653F6170695F6B650C
:101D0A00793D2573266669656C64313D256400500A
:101D1A0043333141304C58544E46503355315000BC
:00000001FF
